{
  "contractName": "Crowdsale",
  "abi": [
    {
      "inputs": [
        {
          "name": "token",
          "type": "address"
        }
      ],
      "payable": false,
      "stateMutability": "nonpayable",
      "type": "constructor"
    },
    {
      "payable": true,
      "stateMutability": "payable",
      "type": "fallback"
    },
    {
      "constant": false,
      "inputs": [
        {
          "name": "tokenId",
          "type": "uint256"
        }
      ],
      "name": "buyTokens",
      "outputs": [],
      "payable": true,
      "stateMutability": "payable",
      "type": "function"
    }
  ],
  "bytecode": "0x608060405234801561001057600080fd5b5060405160208061034a8339810180604052602081101561003057600080fd5b8101908080519060200190929190505050600073ffffffffffffffffffffffffffffffffffffffff168173ffffffffffffffffffffffffffffffffffffffff161415151561007d57600080fd5b806000806101000a81548173ffffffffffffffffffffffffffffffffffffffff021916908373ffffffffffffffffffffffffffffffffffffffff160217905550655af3107a400060016000600181526020019081526020016000208190555065b5e620f48000600160006002815260200190815260200160002081905550660110d9316ec0006001600060038152602001908152602001600020819055505061021f8061012b6000396000f3fe608060405260043610610041576000357c0100000000000000000000000000000000000000000000000000000000900463ffffffff1680633610724e1461004d575b61004b600061007b565b005b6100796004803603602081101561006357600080fd5b810190808035906020019092919050505061007b565b005b6000349050600160008381526020019081526020016000205481101580156100b757506000600160008481526020019081526020016000205414155b15156100c257600080fd5b6000809054906101000a900473ffffffffffffffffffffffffffffffffffffffff1673ffffffffffffffffffffffffffffffffffffffff1663f242432a30338560016040518563ffffffff167c0100000000000000000000000000000000000000000000000000000000028152600401808573ffffffffffffffffffffffffffffffffffffffff1673ffffffffffffffffffffffffffffffffffffffff1681526020018473ffffffffffffffffffffffffffffffffffffffff1673ffffffffffffffffffffffffffffffffffffffff1681526020018381526020018281526020018060200182810382526000815260200160200195505050505050600060405180830381600087803b1580156101d757600080fd5b505af11580156101eb573d6000803e3d6000fd5b50505050505056fea165627a7a72305820a18534a1511c06ca4136266b8ec903e978a6e0dbb6ddcf1d28e1d2380dd3cb670029",
  "source": "pragma solidity ^0.5.0;\n\nimport \"../lib/IERC1155.sol\";\nimport \"openzeppelin-solidity/contracts/math/SafeMath.sol\";\n\n\ncontract Crowdsale {\n    using SafeMath for uint256;\n\n    IERC1155 private _token;\n\n    mapping (uint => uint) price;\n\n    constructor (IERC1155 token) public {\n        require(address(token) != address(0));\n        _token = token;\n        price[1] = 100000000000000;\n        price[2] = 200000000000000;\n        price[3] = 300000000000000;\n    }\n\n    function () external payable {\n        buyTokens( 0);\n    }\n\n    function buyTokens(uint tokenId) public payable{\n        uint256 weiAmount = msg.value;\n        require(weiAmount >= price[tokenId] && price[tokenId] != 0);\n\n        _token.safeTransferFrom(address(this), msg.sender, tokenId, 1, \"\");\n\n    }\n}\n",
  "sourcePath": "/Users/admin/Documents/test1155/erc-1155/contracts/marketplace.sol",
  "compiler": {
    "name": "solc",
    "version": "0.5.0+commit.1d4f565a.Emscripten.clang"
  },
  "schemaVersion": "3.0.1",
  "updatedAt": "2019-01-18T15:16:06.060Z",
  "devdoc": {
    "methods": {}
  },
  "userdoc": {
    "methods": {}
  }
}