{
  "contractName": "ERC1155MockReceiver",
  "abi": [
    {
      "constant": true,
      "inputs": [],
      "name": "lastData",
      "outputs": [
        {
          "name": "",
          "type": "bytes"
        }
      ],
      "payable": false,
      "stateMutability": "view",
      "type": "function"
    },
    {
      "constant": true,
      "inputs": [],
      "name": "shouldReject",
      "outputs": [
        {
          "name": "",
          "type": "bool"
        }
      ],
      "payable": false,
      "stateMutability": "view",
      "type": "function"
    },
    {
      "constant": true,
      "inputs": [],
      "name": "lastValue",
      "outputs": [
        {
          "name": "",
          "type": "uint256"
        }
      ],
      "payable": false,
      "stateMutability": "view",
      "type": "function"
    },
    {
      "constant": true,
      "inputs": [],
      "name": "lastOperator",
      "outputs": [
        {
          "name": "",
          "type": "address"
        }
      ],
      "payable": false,
      "stateMutability": "view",
      "type": "function"
    },
    {
      "constant": true,
      "inputs": [],
      "name": "lastFrom",
      "outputs": [
        {
          "name": "",
          "type": "address"
        }
      ],
      "payable": false,
      "stateMutability": "view",
      "type": "function"
    },
    {
      "constant": true,
      "inputs": [],
      "name": "NOT_ERC1155_RECEIVED",
      "outputs": [
        {
          "name": "",
          "type": "bytes4"
        }
      ],
      "payable": false,
      "stateMutability": "view",
      "type": "function"
    },
    {
      "constant": true,
      "inputs": [],
      "name": "lastId",
      "outputs": [
        {
          "name": "",
          "type": "uint256"
        }
      ],
      "payable": false,
      "stateMutability": "view",
      "type": "function"
    },
    {
      "constant": true,
      "inputs": [],
      "name": "ERC1155_RECEIVED",
      "outputs": [
        {
          "name": "",
          "type": "bytes4"
        }
      ],
      "payable": false,
      "stateMutability": "view",
      "type": "function"
    },
    {
      "constant": true,
      "inputs": [],
      "name": "ERC1155_BATCH_RECEIVED",
      "outputs": [
        {
          "name": "",
          "type": "bytes4"
        }
      ],
      "payable": false,
      "stateMutability": "view",
      "type": "function"
    },
    {
      "constant": false,
      "inputs": [
        {
          "name": "_value",
          "type": "bool"
        }
      ],
      "name": "setShouldReject",
      "outputs": [],
      "payable": false,
      "stateMutability": "nonpayable",
      "type": "function"
    },
    {
      "constant": false,
      "inputs": [
        {
          "name": "_operator",
          "type": "address"
        },
        {
          "name": "_from",
          "type": "address"
        },
        {
          "name": "_id",
          "type": "uint256"
        },
        {
          "name": "_value",
          "type": "uint256"
        },
        {
          "name": "_data",
          "type": "bytes"
        }
      ],
      "name": "onERC1155Received",
      "outputs": [
        {
          "name": "",
          "type": "bytes4"
        }
      ],
      "payable": false,
      "stateMutability": "nonpayable",
      "type": "function"
    },
    {
      "constant": false,
      "inputs": [
        {
          "name": "_operator",
          "type": "address"
        },
        {
          "name": "_from",
          "type": "address"
        },
        {
          "name": "_ids",
          "type": "uint256[]"
        },
        {
          "name": "_values",
          "type": "uint256[]"
        },
        {
          "name": "_data",
          "type": "bytes"
        }
      ],
      "name": "onERC1155BatchReceived",
      "outputs": [
        {
          "name": "",
          "type": "bytes4"
        }
      ],
      "payable": false,
      "stateMutability": "nonpayable",
      "type": "function"
    }
  ],
  "bytecode": "0x608060405234801561001057600080fd5b50610bb3806100206000396000f3fe6080604052600436106100b9576000357c0100000000000000000000000000000000000000000000000000000000900463ffffffff1680626e75ec146100be5780631dbb93811461014e578063431838341461017d5780636eb3cd49146101a857806380443378146101ff5780639568e13614610256578063a175b638146102bf578063bc197c81146102fc578063c1292cc3146104be578063e0a5c949146104e9578063f23a6e6114610552578063fc67bf1c1461067e575b600080fd5b3480156100ca57600080fd5b506100d36106e7565b6040518080602001828103825283818151815260200191508051906020019080838360005b838110156101135780820151818401526020810190506100f8565b50505050905090810190601f1680156101405780820380516001836020036101000a031916815260200191505b509250505060405180910390f35b34801561015a57600080fd5b50610163610785565b604051808215151515815260200191505060405180910390f35b34801561018957600080fd5b50610192610797565b6040518082815260200191505060405180910390f35b3480156101b457600080fd5b506101bd61079d565b604051808273ffffffffffffffffffffffffffffffffffffffff1673ffffffffffffffffffffffffffffffffffffffff16815260200191505060405180910390f35b34801561020b57600080fd5b506102146107c3565b604051808273ffffffffffffffffffffffffffffffffffffffff1673ffffffffffffffffffffffffffffffffffffffff16815260200191505060405180910390f35b34801561026257600080fd5b5061026b6107e9565b60405180827bffffffffffffffffffffffffffffffffffffffffffffffffffffffff19167bffffffffffffffffffffffffffffffffffffffffffffffffffffffff1916815260200191505060405180910390f35b3480156102cb57600080fd5b506102fa600480360360208110156102e257600080fd5b81019080803515159060200190929190505050610810565b005b34801561030857600080fd5b5061046a600480360360a081101561031f57600080fd5b81019080803573ffffffffffffffffffffffffffffffffffffffff169060200190929190803573ffffffffffffffffffffffffffffffffffffffff1690602001909291908035906020019064010000000081111561037c57600080fd5b82018360208201111561038e57600080fd5b803590602001918460208302840111640100000000831117156103b057600080fd5b9091929391929390803590602001906401000000008111156103d157600080fd5b8201836020820111156103e357600080fd5b8035906020019184602083028401116401000000008311171561040557600080fd5b90919293919293908035906020019064010000000081111561042657600080fd5b82018360208201111561043857600080fd5b8035906020019184600183028401116401000000008311171561045a57600080fd5b909192939192939050505061082c565b60405180827bffffffffffffffffffffffffffffffffffffffffffffffffffffffff19167bffffffffffffffffffffffffffffffffffffffffffffffffffffffff1916815260200191505060405180910390f35b3480156104ca57600080fd5b506104d3610973565b6040518082815260200191505060405180910390f35b3480156104f557600080fd5b506104fe610979565b60405180827bffffffffffffffffffffffffffffffffffffffffffffffffffffffff19167bffffffffffffffffffffffffffffffffffffffffffffffffffffffff1916815260200191505060405180910390f35b34801561055e57600080fd5b5061062a600480360360a081101561057557600080fd5b81019080803573ffffffffffffffffffffffffffffffffffffffff169060200190929190803573ffffffffffffffffffffffffffffffffffffffff1690602001909291908035906020019092919080359060200190929190803590602001906401000000008111156105e657600080fd5b8201836020820111156105f857600080fd5b8035906020019184600183028401116401000000008311171561061a57600080fd5b90919293919293905050506109a0565b60405180827bffffffffffffffffffffffffffffffffffffffffffffffffffffffff19167bffffffffffffffffffffffffffffffffffffffffffffffffffffffff1916815260200191505060405180910390f35b34801561068a57600080fd5b50610693610abb565b60405180827bffffffffffffffffffffffffffffffffffffffffffffffffffffffff19167bffffffffffffffffffffffffffffffffffffffffffffffffffffffff1916815260200191505060405180910390f35b60018054600181600116156101000203166002900480601f01602080910402602001604051908101604052809291908181526020018280546001816001161561010002031660029004801561077d5780601f106107525761010080835404028352916020019161077d565b820191906000526020600020905b81548152906001019060200180831161076057829003601f168201915b505050505081565b6000809054906101000a900460ff1681565b60055481565b600260009054906101000a900473ffffffffffffffffffffffffffffffffffffffff1681565b600360009054906101000a900473ffffffffffffffffffffffffffffffffffffffff1681565b63a23a6e607c01000000000000000000000000000000000000000000000000000000000281565b806000806101000a81548160ff02191690831515021790555050565b600088600260006101000a81548173ffffffffffffffffffffffffffffffffffffffff021916908373ffffffffffffffffffffffffffffffffffffffff16021790555087600360006101000a81548173ffffffffffffffffffffffffffffffffffffffff021916908373ffffffffffffffffffffffffffffffffffffffff1602179055508686600081811015156108bf57fe5b905060200201356004819055508484600081811015156108db57fe5b905060200201356005819055508282600191906108f9929190610ae2565b50600115156000809054906101000a900460ff16151514156109405763a23a6e607c0100000000000000000000000000000000000000000000000000000000029050610967565b63bc197c817c01000000000000000000000000000000000000000000000000000000000290505b98975050505050505050565b60045481565b63f23a6e617c01000000000000000000000000000000000000000000000000000000000281565b600086600260006101000a81548173ffffffffffffffffffffffffffffffffffffffff021916908373ffffffffffffffffffffffffffffffffffffffff16021790555085600360006101000a81548173ffffffffffffffffffffffffffffffffffffffff021916908373ffffffffffffffffffffffffffffffffffffffff1602179055508460048190555083600581905550828260019190610a43929190610ae2565b50600115156000809054906101000a900460ff1615151415610a8a5763a23a6e607c0100000000000000000000000000000000000000000000000000000000029050610ab1565b63f23a6e617c01000000000000000000000000000000000000000000000000000000000290505b9695505050505050565b63bc197c817c01000000000000000000000000000000000000000000000000000000000281565b828054600181600116156101000203166002900490600052602060002090601f016020900481019282601f10610b2357803560ff1916838001178555610b51565b82800160010185558215610b51579182015b82811115610b50578235825591602001919060010190610b35565b5b509050610b5e9190610b62565b5090565b610b8491905b80821115610b80576000816000905550600101610b68565b5090565b9056fea165627a7a723058204e5f84523555ed55e5baa27a9703981136008227a3857ff55d1dde68661ddf780029",
  "source": "pragma solidity ^0.5.0;\n\n// Contract to test safe transfer behavior.\ncontract ERC1155MockReceiver {\n    bytes4 constant public ERC1155_RECEIVED = 0xf23a6e61;\n    bytes4 constant public ERC1155_BATCH_RECEIVED = 0xbc197c81;\n    bytes4 constant public NOT_ERC1155_RECEIVED = 0xa23a6e60; // Some random value\n\n    // Keep values from last received contract.\n    bool public shouldReject;\n\n    bytes public lastData;\n    address public lastOperator;\n    address public lastFrom;\n    uint256 public lastId;\n    uint256 public lastValue;\n\n    function setShouldReject(bool _value) public {\n        shouldReject = _value;\n    }\n\n    function onERC1155Received(address _operator, address _from, uint256 _id, uint256 _value, bytes calldata _data) external returns(bytes4) {\n        lastOperator = _operator;\n        lastFrom = _from;\n        lastId = _id;\n        lastValue = _value;\n        lastData = _data;\n        if (shouldReject == true) {\n            return NOT_ERC1155_RECEIVED;\n        } else {\n            return ERC1155_RECEIVED;\n        }\n    }\n\n    function onERC1155BatchReceived(address _operator, address _from, uint256[] calldata _ids, uint256[] calldata _values, bytes calldata _data) external returns(bytes4) {\n        lastOperator = _operator;\n        lastFrom = _from;\n        lastId = _ids[0];\n        lastValue = _values[0];\n        lastData = _data;\n        if (shouldReject == true) {\n            return NOT_ERC1155_RECEIVED;\n        } else {\n            return ERC1155_BATCH_RECEIVED;\n        }\n    }\n}\n",
  "sourcePath": "/Users/admin/Documents/test1155/erc-1155/contracts/ERC1155MockReceiver.sol",
  "compiler": {
    "name": "solc",
    "version": "0.5.0+commit.1d4f565a.Emscripten.clang"
  },
  "schemaVersion": "3.0.1",
  "updatedAt": "2019-01-18T09:26:19.121Z",
  "devdoc": {
    "methods": {}
  },
  "userdoc": {
    "methods": {}
  }
}